:1000000012C02CC02BC02AC029C028C028C026C0BE
:1000100025C024C023C022C021C020C01FC01EC0D4
:100020001DC01CC01BC011241FBECFE5D4E0DEBF25
:10003000CDBF10E0A0E6B0E0E2EEF1E002C0059036
:100040000D92A037B107D9F720E0A0E7B0E001C0DA
:100050001D92A637B207E1F71ED0C1C0D1CF1F92C3
:100060000F920FB60F9211248F9381E08093750049
:100070008F910F900FBE0F901F90189588B38078C6
:1000800088BB98B3E0917200F0E0E05AFF4F8081A6
:10009000892B88BB089584B38C6384BB87B38FEFAF
:1000A00087BB81B3887E81BB82B3876182BB8EB5FB
:1000B00088608EBD89B7806189BF88E09DE39BBD64
:1000C0008ABD8EB583608EBD88E090E073D080934A
:1000D0007100809372007894C1E08091750088234C
:1000E00031F010927500CADF88B3805888BB809BBE
:1000F00007C080917400813019F41092740046C0DA
:10010000819B07C080917300813019F410927300B5
:100110003DC0809912C08091740081110EC0809101
:1001200072008F5F803118F48093720002C01092C9
:100130007200C79AC09374000EC081990EC080915E
:10014000730081110AC08091720081508093720007
:10015000C79AC093730092DF19C0829917C0F894B0
:1001600088E090E027D08093710060E088E090E024
:1001700029D010927200C79A2FE38DE093E02150AE
:1001800080409040E1F700C0000078948499A5CFAA
:10019000F8946091720088E090E014D0C79A2FE93B
:1001A00086E891E0215080409040E1F700C00000D7
:1001B000789493CFE199FECF9FBB8EBBE09A9927AD
:1001C0008DB30895262FE199FECF9FBB8EBB2DBB2B
:1001D0000FB6F894E29AE19A0FBE01960895F8944A
:0201E000FFCF4F
:1001E2003F065B4F666D7D077F6F777C395E797165
:00000001FF
