:1000000012C02CC02BC02AC029C028C028C026C0BE
:1000100025C024C023C022C021C020C01FC01EC0D4
:100020001DC01CC01BC011241FBECFE5D4E0DEBF25
:10003000CDBF10E0A0E6B0E0E4E9F1E002C0059039
:100040000D92A037B107D9F720E0A0E7B0E001C0DA
:100050001D92A437B207E1F711D09AC0D1CF1F92F9
:100060000F920FB60F9211248F9381E0809373004B
:100070008F910F900FBE0F901F90189584B38C63D3
:1000800084BB87B38FEF87BB81B3887E81BB82B38C
:10009000876182BB8EB588608EBD89B7806189BF5C
:1000A00088E09DE39BBD8ABD8EB583608EBD88E0F0
:1000B00090E059D080937100809372007894809181
:1000C0007300882389F01092730088B3807888BB0E
:1000D00098B3E0917200F0E0E05AFF4F8081892BE5
:1000E00088BB88B3805888BB809908C08091720013
:1000F0008F5F803140F01092720007C0819907C075
:1001000080917200815080937200C79A19C08299C1
:1001100017C0F89488E090E026D08093710060E0EA
:1001200088E090E028D010927200C79A2FE38DE00B
:1001300093E0215080409040E1F700C000007894A7
:100140008499BDCFF8946091720088E090E013D05C
:10015000C79A2FE986E891E0215080409040E1F76E
:1001600000C00000ABCFE199FECF9FBB8EBBE09AF1
:1001700099278DB30895262FE199FECF9FBB8EBBA3
:100180002DBB0FB6F894E29AE19A0FBE019608953E
:04019000F894FFCF11
:100194003F065B4F666D7D077F6F777C395E7971B3
:00000001FF
